:020000022000DC
:106000000000042059620200B1620200B362020083
:10601000B5620200B7620200B9620200000000002F
:10602000000000000000000000000000BB62020051
:10603000BD62020000000000BF620200C1620200F7
:10604000DDBD0200C7620200F9C30200CB6202009C
:10605000CD620200CF62020011C10200D3620200D1
:10606000D5620200D7620200D9620200DB62020040
:10607000DD620200DF620200E1620200E362020010
:10608000E56202009D830200E9620200EB62020009
:10609000DD830200EF6202002DFB0200F3620200CA
:1060A000F5620200F7620200F9620200FB62020080
:1060B000FD620200FF620200C3620200C3620200CE
:1060C000016302000363020005630200076302002C
:1060D00095C602000B6302000D6302000F6302000D
:1060E000116302001363020015630200C362020021
:1060F000C362020019630200C36202001763020058
:10610000344935480A1A02D0072291438D46334953
:1061100033480A1A06D00722914381F309880222E4
:1061200082F314882F483049304A00F041F8304853
:106130003049314A00F03CF830483149314A00F0EA
:1061400037F831483149324A00F032F831483249A3
:10615000324A00F02DF832483249334A00F028F82C
:1061600032483349334A00F023F833483349002298
:1061700000F029F832483349002200F024F8324870
:106180003249091A0AF05AF8314A90471F48204903
:10619000884205D00268043003B4904703BCF7E797
:1061A00000208646EC46002000212A4A9047FEE760
:1061B000884207D0521A05D0037801300B700131A4
:1061C000013AF9D17047884202D002700130FAE7F3
:1061D000704700000000042000E0032000000420BD
:1061E00000000420702803006C3200200C330020D3
:1061F0001C6302001C6302005002030070280300AD
:106200006C3200206C320020780303007803030016
:106210007803030078030300780303007803030086
:10622000780303007803030070280300102903009B
:106230000C3300200C3300200C330020103E0020D3
:10624000103E0020103E0020103E0020105E002076
:106250007D620200D9E902000F484FF00701884330
:1062600085460E4880470E48016841F47001016080
:10627000BFF34F8FBFF36F8FFFF742BF09480A4943
:106280000A4A884207D0521A05D0037801300B70B1
:106290000131013AF9D17047000004205DB10200DC
:1062A00088ED00E02C030300203200206C32002037
:1062B000FEE7FEE7FEE7FEE7FEE7FEE7FEE7FEE7B6
:1062C000FEE7FEE7FEE7FEE7FEE7FEE7FEE7FEE7A6
:1062D000FEE7FEE7FEE7FEE7FEE7FEE7FEE7FEE796
:1062E000FEE7FEE7FEE7FEE7FEE7FEE7FEE7FEE786
:1062F000FEE7FEE7FEE7FEE7FEE7FEE7FEE7FEE776
:10630000FEE7FEE7FEE7FEE7FEE7FEE7FEE7FEE765
:0C631000FEE7FEE7FEE7FEE7FEE700BF49
:10631C0000B585B00190019B002B0AD0074B43F0D0
:10632C0001030393019B9B010293039B02989847E3
:10633C0000E000BF05B05DF804FB00BF9003030054
:10634C0000B583B00190019B002B0AD04FF47A70FA
:10635C00FFF7DEFF019B013B0193019B002BF5D165
:10636C0000E000BF03B05DF804FB08B508F092FC38
:10637C0000BF08BD00B589B0039002910192019B4A
:10638C00002B33D00023079303230693029A079B19
:10639C001344019A1946002008F02CFC0590079A2A
:1063AC00059B13440793019A059BD31A0193059BF4
:1063BC00002B13D10F4B1B7883F00103DBB2002BA6
:1063CC0013D10120FFF7BCFF069B013B0693069BF4
:1063DC00002B03D1074B00221A7007E0054B01225A
:1063EC001A70019B002BD1D100E000BF00BF09B097
:1063FC005DF804FB0C33002000B585B003900291CE
:10640C00054B00934023054A0299039800F012F8BB
:10641C0000BF05B05DF804FB81630200103300205F
:10642C0082B0019000BF02B0704782B0019000BFF3
:10643C0002B0704700B5A1B005900491039202938D
:10644C00049804F057FB039B1593029B16930023AF
:10645C00179300238DF8603000231993229B1A9315
:10646C0000231F930FA91F9B0822049804F000FC23
:10647C0008231F93119B1293BDF84030ADF84C309C
:10648C00BDF84230ADF84E3000238DF851309DF8F8
:10649C003C3003F00303DBB2012B26D10F9BC3F37B
:1064AC0095231C939DF83C30C3F3C203DBB28DF8EB
:1064BC005030BDF83C30C3F38313DBB21B931B9BF2
:1064CC009A0009A91F9B049804F0D2FB1B9B9B000C
:1064DC001F9A13441F9312AA09A915AB00931346D4
:1064EC001B9A1C9801F03CF82FE09DF83C3003F00F
:1064FC000303DBB2022B28D1BDF83E30C3F3891362
:10650C009BB21E939DF83C30C3F3C203DBB28DF8F3
:10651C0050301E9B082B28BF08231D9307A91F9BD7
:10652C001D9A049804F0A4FB1F9A1D9B13441F93FF
:10653C001E9A1D9BD31A1E9315AB12AA07A81D9960
:10654C0001F0B0F81E9B002BE3D1049804F0E1FAA3
:10655C0000BF21B05DF804FB00B583B00190019B36
:10656C001B781A460C4B9B5C002B05D0019B04330B
:10657C00184607F0CDFA0BE0019B1B781A46064B28
:10658C009B5C002B04D1019B0C33184606F060FC7D
:10659C0000BF03B05DF804FB083A002000B587B0DB
:1065AC000390029113468DF8073000230593039B4B
:1065BC001B781A46114B9B5C002B09D0039B0433B0
:1065CC009DF807200299184607F0D0FA05900FE0C5
:1065DC00039B1B781A46094B9B5C002B08D1039B31
:1065EC000C339DF807200299184606F0A7FC05907D
:1065FC00059B184607B05DF804FB00BF083A002065
:10660C0082B001900091034B01221A7000BF02B0BE
:10661C00704700BF9033002030B58DB003468DF825
:10662C0007301A4B02AC1D460FCD0FC495E80F0076
:10663C0084E80F00062302934FF0FF3303934FF0CF
:10664C00FF3304934FF0FF3305934FF0EB73089334
:10665C009DF80730002B01D00D4A00E0002202AB60
:10666C0019460C4805F0D0F90B900B9B0A930A9B2A
:10667C00002B04D0084A43210A9801F0D5F8074AA8
:10668C009DF80730137000BF0DB030BDFC03030044
:10669C000D6602006C320020980303009133002039
:1066AC0000B583B001238DF807309DF807301846EC
:1066BC00FFF7B2FF00BF03B05DF804FB00B589B073
:1066CC00039002910192019B8DF81F30124B002216
:1066DC001A709DF81F301A4602991048FFF75EFF9A
:1066EC000690069B0593059B002B04D00C4A532166
:1066FC00059801F099F800BF0A4B1B78002B07D0C6
:10670C00054B1B78DBB283F00103DBB2002BF3D11A
:10671C0000BF09B05DF804FB903300206C32002000
:10672C00980303009133002000B585B003900291CB
:10673C00054B00934023054A02990398FFF77AFE14
:10674C0000BF05B05DF804FBC966020050330020A1
:10675C0082B0019000BF02B07047000000B583B05A
:10676C0001900548FFF7F8FE0020FFF755FF00BF2A
:10677C0003B05DF804FB00BF6C32002082B00190C6
:10678C00019B01225A7200BF02B0704700B583B062
:10679C004FF0FF330193FFF7E8FD0421114800F09F
:1067AC00FFFD0190019B002B03DA0F49412001F002
:1067BC008EFF0C48FFF7E2FFFFF772FF04210B4836
:1067CC0000F0EEFD0190019B002B03DA06494820F6
:1067DC0001F07DFF0548FFF7D1FF00BF03B05DF866
:1067EC0004FB00BF80320020280403008C32002000
:1067FC0000B583B001900091019B1B681B68009948
:10680C000198984700BF03B05DF804FB00B583B056
:10681C000190019B1B685B680198984700BF03B00F
:10682C005DF804FB00B583B00190019B1B689B686D
:10683C000198984700BF03B05DF804FB82B001904B
:10684C000B468DF80330019B9DF803201A7200BF94
:10685C0002B0704782B00190019B1B7A184602B0BF
:10686C00704782B00190019B01225A7200BF02B0A6
:10687C00704782B00190019B5B7A184602B070475A
:10688C0000B587B0019000911D4BFF229A601C4B04
:10689C0000221A601A4B00225A60194B0022C3F8CE
:1068AC001824174B0022C3F81424154B002283F82C
:1068BC002024144804F082F80490049B002B01D08F
:1068CC00049B18E0104A114BD31ADB0803930023E6
:1068DC0005930BE0059B9B000D4A13440293059B0B
:1068EC009AB2029B1A80059B01330593059A039B70
:1068FC009A42EFD30023184607B05DF804FB00BFA3
:10690C0064340020F8020300F80203009002030034
:10691C0038320020024A034BD31ADB081846704762
:10692C00F80203009002030000B587B001900B46FB
:10693C008DF803309DF80330002B1FD0FFF7EAFFD2
:10694C0004900023059313E0059B9B000E4A13440F
:10695C000393039B5B881A46019B1B689A4204D1E4
:10696C00019B059A1A60002309E0059B01330593EE
:10697C00059A049B9A42E7D3052300E000231846AE
:10698C0007B05DF804FB00BF3832002000B585B0BD
:10699C0001900B468DF803309DF8032001AB114696
:1069AC001846FFF7C1FF0346002B07D1019BDB0004
:1069BC00054A13440393039B1B6800E0002318460D
:1069CC0005B05DF804FB00BF9002030084B0019099
:1069DC000B468DF80330019BDB00174A13440293DE
:1069EC009DF80330013B032B1CD801A252F823F075
:1069FC000D6A0200156A02001D6A0200276A020075
:106A0C0002238DF80F3011E004238DF80F300DE0C8
:106A1C00029B1B798DF80F3008E0029B5B798DF897
:106A2C000F3003E000238DF80F3000BF9DF80F30BE
:106A3C00184604B0704700BF9002030000B585B043
:106A4C000190009100238DF80F30019B1B7803F00F
:106A5C000303DBB2002B06D0019B1B7803F004036D
:106A6C00DBB2002B43D0019B1B7803F00403DBB299
:106A7C00002B27D0019B1B78C3F30103DBB2012B46
:106A8C0002D0022B0CD017E0009B1B68019A1288D5
:106A9C00C2F38312D2B213449A1C009B1A6023E0F7
:106AAC00009B1B68019A5288C2F3891292B213445C
:106ABC009A1C009B1A6017E010494FF4A47001F067
:106ACC0006FE11E0009B1A68019B5B88C3F38913D7
:106ADC009BB21946019B1B88C3F389139BB20B44D1
:106AEC0013445A1C009B1A6001238DF80F309DF83B
:106AFC000F30184605B05DF804FB00BFB40403006A
:106B0C0000B58BB00023ADF826303E4801F06DFE89
:106B1C003D4801F06AFE3D4B5B6804933B4B9B6820
:106B2C000693049A069B134002339B00374A134486
:106B3C000433089304AB19460898FFF77FFF03460C
:106B4C00002B09D0049A069B134002339B002F4A5A
:106B5C00134404330893EDE700BF0023079311E0BF
:106B6C00049B5A1C0492069A1340079A920001A99E
:106B7C000A44264902339B000B445B681360079B55
:106B8C0001330793079B012BEAD99DF80430C3F31B
:106B9C000103DBB2012B10D0022B1CD1BDF80A3043
:106BAC00ADF82630BDF80630C3F389139BB203331E
:106BBC009A08049B1344049313E0BDF80A30ADF813
:106BCC002630BDF80430C3F38313DBB21A46049BA2
:106BDC001344049305E00E494FF4C27001F077FDA5
:106BEC0000BF094801F00DFE0590059B002B02D05B
:106BFC00049B064A5360BDF8263018460BB05DF86E
:106C0C0004FB00BF7C38002078380020643400205E
:106C1C00B404030000B585B00021074801F06EFDF7
:106C2C000390039B0293029B83F310030193019B3C
:106C3C00184605B05DF804FB8038002000B589B01B
:106C4C000390029101920093039B1B0C0793FFF797
:106C5C00E1FF0690FFF75EFE0246079B934204D3CA
:106C6C00214940F2A91001F032FD069B1904009B4A
:106C7C005A1C0A9B1340079A0A431C4902339B0077
:106C8C000B445A60009A0A9B134002339B00174A2C
:106C9C00134404330593039B03F00703D9B2059AFD
:106CAC00137861F3C5031370019B03F00F03D9B282
:106CBC00059A138861F389131380029BC3F31501A2
:106CCC00059A136861F39F231360059A13780121C9
:106CDC0061F301031370059A13786FF38203137039
:106CEC0000BF09B05DF804FBB40403006434002059
:106CFC0000B58DB00390029113468DF80730039BBD
:106D0C0002330A9301238DF8273000238DF81B30B2
:106D1C000DF11B03184601F08DFC404B1A68029BC9
:106D2C001A603E4B9A683D4B59683C4B1B68CB1A1A
:106D3C00134401330B9314E00121394801F025FD74
:106D4C00FFF7DEFE07900799354801F01EFD334B27
:106D5C009A68324B5968314B1B68CB1A1344013378
:106D6C000B930A9A0B9B9A42E6D89DF82730002B7E
:106D7C0048D0002305939DF80730002B17D09DF8C1
:106D8C001430012262F301038DF814309DF8143095
:106D9C0043F004038DF81430039B03F00F03DAB2B5
:106DAC00BDF8143062F38913ADF8143016E09DF879
:106DBC001430022262F301038DF814309DF8143064
:106DCC0043F004038DF81430039BC3F309039AB208
:106DDC00BDF8163062F38F13ADF816300F4B1A68EE
:106DEC000E4B9B68134002339B000C4A1344043334
:106DFC000893059A089B1A60084B1A680A9B13445F
:106E0C00064A13609DF81B30184601F029FC9DF8CA
:106E1C00273018460DB05DF804FB00BF6434002029
:106E2C008038002000B58BB005900491039202933A
:106E3C001F4B9B68079306AB012219460298FFF77C
:106E4C0057FF0346002B24D0069B023309930023E3
:106E5C00089311E0089B9B00039A1A44099B591C48
:106E6C00099107990B401268114902339B000B449E
:106E7C005A60089B01330893089A029B9A42E9D303
:106E8C00069A079B00931346029A04990598FFF7FC
:106E9C00D5FE074B93F82034002B05D000BF00F033
:106EAC0081F80346002BFAD100BF0BB05DF804FB50
:106EBC006434002000B583B00190009100230022BF
:106ECC0000990198FFF7AEFF00BF03B05DF804FB1B
:106EDC0000B587B0039002910192019B059305AA1E
:106EEC00012302990398FFF79DFF00BF07B05DF8DF
:106EFC0004FB00B587B00390029101920093019BB3
:106F0C000493009B059304AA022302990398FFF7AC
:106F1C0089FF00BF07B05DF804FB00B58BB0039090
:106F2C00029101920093019B0593009B06930C9B8D
:106F3C0007930D9B08930E9B099305AA05230299B1
:106F4C000398FFF76FFF00BF0BB05DF804FB00B5B3
:106F5C008BB00390029101920093019B0493009BD0
:106F6C0005930C9B06930D9B07930E9B08930F9B0D
:106F7C00099304AA062302990398FFF753FF00BF55
:106F8C000BB05DF804FB0000054B5A68044B1B6802
:106F9C009A420CBF01230023DBB21846704700BF96
:106FAC006434002000B599B0FFF7EEFF0346002BC8
:106FBC0001D00023B6E1994B0022C3F81824BFF38B
:106FCC004F8F00BF954B5B680493944B9B68109359
:106FDC00049A109B134002339B00904A13440433D1
:106FEC001293002317930023169300230F9304ABE3
:106FFC0019461298FFF722FD0346002B14D0874B3D
:10700C001A68049B9A4205D8844B1B68834A5360C8
:10701C00002387E1049A109B134002339B007F4AA4
:10702C00134404331293E2E700BF0023159311E0DD
:10703C00049B5A1C0492109A1340159A920001A9B1
:10704C000A44764902339B000B445B681360159B22
:10705C0001331593159B012BEAD99DF8043003F0ED
:10706C000303DBB2022B40F09C80BDF80630C3F367
:10707C0089139BB20D93BDF80630C3F389139BB2F1
:10708C00502B28BF50239BB20C930C9BC3F30903CA
:10709C009AB2BDF8063062F38F13ADF806300C9B34
:1070AC0008330B939DF80430C3F3C203DBB20F9388
:1070BC000B995B4803F08DFC1790179B002B00F08D
:1070CC00D180179803F016FD01A9169B082217987A
:1070DC0003F0BCFD169B08331693049BDA43109BFC
:1070EC00134001339B000A930C9A0A9B9A4242D993
:1070FC000A9B002B08D0049A109B134002339B0070
:10710C00464A1344043300E0464B08930A9B002B79
:10711C0002D00A9BDBB201E00C9BDBB28DF81F3076
:10712C000A9B002B01D03F4B00E0002306930A9BE7
:10713C00002B06D00C9BDAB20A9BDBB2D31ADBB263
:10714C0000E000238DF817309DF81F20169B08993E
:10715C00179803F07BFD9DF81F30169A1344169375
:10716C00069B002B16D09DF81720169B0699179896
:10717C0003F06CFD0EE0049A109B134002339B004D
:10718C00264A134404330993169B0C9A09991798B1
:10719C0003F05CFD0D9B03339A08049B134404938A
:1071AC0060E09DF8043003F00303DBB2012B59D1EE
:1071BC00BDF80430C3F38313DBB2062B28BF0623C0
:1071CC00DAB2BDF8043062F38913ADF80430BDF8BF
:1071DC000430C3F38313DBB202330E939DF80430F7
:1071EC00C3F3C203DBB20F930E9B9B0019460C48F2
:1071FC0003F0EFFB1790179B002B33D0179803F07D
:10720C0079FC01A9169B0822179803F01FFD169B09
:10721C0008331693002315931BE000BF6434002041
:10722C00F802030070340020049B5A1C0492109A3C
:10723C00134002339B003D4A1344191D169B042234
:10724C00179803F003FD169B04331693159B01331B
:10725C001593BDF80430C3F38313DBB21A46159BA8
:10726C009342E1D3179B002B3FD0304BD3F8103413
:10727C0014932E4BD3F81834002B1AD0179803F014
:10728C0048FC49E000238DF84F301498FFF7F1FAD1
:10729C000346002B02D001238DF84F309DF84F3060
:1072AC00002B03D017991498FFF7A2FA149B5B6874
:1072BC001493149B002BE5D1179803F02AFC0023A0
:1072CC008DF803300DF10303184601F0B3F9174B99
:1072DC00D3F81834002B02D1049B144A53609DF848
:1072EC000330184601F0BCF916E0104BD3F81034FB
:1072FC00119305E01198FFF795FA119B5B681193B8
:10730C00119B002BF6D10A4B1B881B0443F0020384
:10731C0008491846FFF7CEFDFFF736FE034683F00B
:10732C000103DBB2184619B05DF804FB643400208D
:10733C00503200201405030000B585B000230393E0
:10734C0022E0164BD3F81034029301238DF807304A
:10735C000EE00298FFF77EFA03461A46039B93420F
:10736C0003D100238DF8073005E0029B5B68029384
:10737C00029B002BEDD19DF80730002B01D0039B15
:10738C0007E0039B01330393039B092BD9DD4FF0DB
:10739C00FF33184605B05DF804FB00BF64340020D1
:1073AC0000B585B001900B468DF80330FFF7C4FF94
:1073BC000390039BB3F1FF3F01D1039B1EE0039BA2
:1073CC00DBB219460198FFF739FA0E4BD3F810349B
:1073DC00002B07D10B4A019BC2F81034019B0022F1
:1073EC005A600AE0074BD3F810345A68019B5A6074
:1073FC00044BD3F81034019A5A60039B184605B01D
:10740C005DF804FB6434002000B583B00C4BD3F85A
:10741C00103401930A4B012283F8202408E00198D0
:10742C00FFF71FFA0198FFF7F1F9019B5B680193D5
:10743C00019B002BF3D100BF00BF03B05DF804FB30
:10744C006434002082B00190009100BF02B07047FC
:10745C0010B584B003900291039BDB88002B0AD0FB
:10746C00039BDB881A461F4B009313461E4A1F4989
:10747C00029802F0FFFE039B1B7A052B2ED0039B78
:10748C005B7A002B12D0039B9B881A46039B1B7ABA
:10749C0019461046FFF79AFA03461A46144B53F84E
:1074AC0022301A461349029802F0E4FE039B1B6833
:1074BC0019460298FFF7C6FF039B1B7A1A460E4B20
:1074CC0053F82240039B9B8800211846FFF75EFA75
:1074DC00034622460949029802F0CCFE00BF04B0D4
:1074EC0010BD00BF480503005805030090050300BC
:1074FC00AC320020A805030098320020AC05030034
:10750C0000B585B00390029113468DF80730039BAC
:10751C001B7A052B0FD0039B5B7A002B06D00D4BEF
:10752C001B681A460C49029802F0A4FE0B490298FB
:10753C0002F0A0FE07E09DF80730002B03D00749AE
:10754C00029802F097FE029802F072FE00BF05B09E
:10755C005DF804FBAC320020A8050300B80503005D
:10756C0030B58BB007900691059204930E9B1B7B54
:10757C008DF827300E9B00221A730E990498FFF792
:10758C0067FF059B062B7FD801A252F823F000BFA2
:10759C00B9750200C3750200D3750200E7750200CD
:1075AC00057602002D7602005D76020007990E9892
:1075BC0002F060FE69E0069B1B681A4607990E985C
:1075CC0002F058FE61E0069B1A68069B04331B68A8
:1075DC0007990E9802F04EFE57E0069B1A68069B20
:1075EC0004331968069B08331B6800930B460799F4
:1075FC000E9802F03FFE48E0069B1968069B043388
:10760C001868069B08331B68069A0C3212680192A4
:10761C00009303460A4607990E9802F02BFE34E0BD
:10762C00069B1868069B04331C68069B08331B6872
:10763C00069A0C321268069910310968029101926F
:10764C0000932346024607990E9802F013FE1CE0A5
:10765C00069B1C68069B04331D68069B08331B683D
:10766C00069A0C3212680699103109680698143083
:10767C00006803900291019200932B4622460799D1
:10768C000E9802F0F7FD00E000BF00220E9904985E
:10769C00FFF736FF0E9B9DF827201A7300BF0BB027
:1076AC0030BD00BF00B587B00390029101920093EA
:1076BC00029B082B5CD8009B1B7B8DF81330009B26
:1076CC0000221A7300990198FFF7C2FE002305935C
:1076DC0014E0059A029B9A4209D2039A059B134423
:1076EC001B781A462449009802F0C4FD03E0234994
:1076FC00009802F0BFFD059B01330593059B072BFA
:10770C00E7D91F49009802F0B5FD0023059322E04C
:10771C00059A029B9A4217D2039A059B13441B7835
:10772C008DF812309DF81230184608F07AFC03469A
:10773C00002B02D09DF8123000E02E231A4611497E
:10774C00009802F097FD03E00F49009802F092FDBB
:10775C00059B01330593059B072BD9D90122009971
:10776C000198FFF7CDFE009B9DF813201A7300E0E3
:10777C0000BF07B05DF804FBBC050300C4050300A3
:10778C00C8050300CC050300D005030086B00390A8
:10779C000291019201238DF817309DF81730214A80
:1077AC00039B13601F4A029B53601E4A019B93600C
:1077BC00039B44F20102934213D0039B44F2020256
:1077CC00934221D1019B174AD360164BDB681B886F
:1077DC001A46144B9A61134BDB685B68114AD361F0
:1077EC0012E0019B0F4A13610E4B1B699B680D4AFB
:1077FC0053610C4B1B691B680A4A9361094B1B694B
:10780C005B68084AD36100BF72B600BF00BF9DF829
:10781C001730DBB2002BFAD162B600BF00BF06B046
:10782C00704700BF8838002000B583B002900091EB
:10783C00019244F2010071466A4600F003F803B06D
:10784C0000BD00BF30B58BB007900691059272B6A3
:10785C0000BFFFF7D9FD00BFFFF7A4FB0346002BC9
:10786C00FAD1079B44F2020293422BD0079B44F2BD
:10787C000202934261D8079B44F20102934232D038
:10788C00079B44F20102934257D8079B012B05D06A
:10789C00079B41F2010293420AD04EE0344B1B8805
:1078AC001B0443F0010333491846FFF703FB4FE079
:1078BC002F4B1B881B0443F001032F491846FFF77D
:1078CC00F9FA45E0059B0993294B1B881B0443F0EF
:1078DC0001031846099B5B681A46099B1B882749BC
:1078EC00FFF707FB34E0059B0893214B1B881B0417
:1078FC0043F001031D46089B9C68089B9B68184637
:10790C0003F0BEFB03461846089B5B681946089BB0
:10791C001B68069A0292019300910346224618496D
:10792C002846FFF7FAFA124B1B881B0443F001039D
:10793C0014491846FFF7BEFA0AE00D4B1B881B04CE
:10794C0043F00103069A10491846FFF7C1FA00BF2D
:10795C000E4B1B6803F00103002B00D000BE059AF0
:10796C0006990798FFF712FF00BF0BB030BD00BFA0
:10797C0050320020D4050300F40503001806030060
:10798C00340603005C06030070060300F0ED00E013
:10799C0082B003468DF807309DF8073003F01F02C4
:1079AC0005499DF907305B09012000FA02F241F804
:1079BC00232000BF02B0704700E100E082B0034614
:1079CC008DF807309DF8073003F01F0206499DF92A
:1079DC0007305B09012000FA02F2203341F8232022
:1079EC0000BF02B0704700BF00E100E082B0034668
:1079FC008DF807309DF8073003F01F0206499DF9FA
:107A0C0007305B09012000FA02F2403341F82320D1
:107A1C0000BF02B0704700BF00E100E082B0034637
:107A2C008DF807309DF8073003F01F0206499DF9C9
:107A3C0007305B09012000FA02F2603341F8232081
:107A4C0000BF02B0704700BF00E100E082B0034607
:107A5C0000918DF807309DF90730002B0CDA009B54
:107A6C00DAB20C499DF8073003F00F03043B5201C6
:107A7C00D2B20B441A7609E0009BDAB206499DF9A2
:107A8C0007305201D2B20B4483F8002300BF02B07E
:107A9C00704700BF00ED00E000E100E000B585B0EC
:107AAC000190019B002B0AD0074B43F00103039379
:107ABC00019B9B010293039B0298984700E000BF37
:107ACC0005B05DF804FB00BF9006030000B583B061
:107ADC000190064A019BC2F8083507211120FFF7D7
:107AEC00B5FF00BF03B05DF804FB00BF0010014000
:107AFC0008B50D4B4FF48032C3F844230A4B4FF4B6
:107B0C008032C3F804231120FFF788FF1120FFF700
:107B1C003FFF054B01221A602F20FFF7BFFF034BDD
:107B2C0001221A7000BF08BD00100140C6390020A8
:107B3C0008B51120FFF742FF0E4B4FF48032C3F80B
:107B4C0048230C4B4FF48032C3F80823094B012215
:107B5C005A602F20FFF7A2FF064B01229A60064BBA
:107B6C0000221A602F20FFF799FF044B00221A7095
:107B7C0000BF08BD00100140B8390020C6390020F4
:107B8C00024BD3F804351846704700BF0010014073
:107B9C0082B001900091019A009BD31A23F07F438D
:107BAC00184602B07047000082B00190034A019B56
:107BBC00C2F8403500BF02B0704700BF0010014052
:107BCC0086B00190284B1B68002B03D1264A019BE1
:107BDC00136045E0019B1A68234B1B681B689A4293
:107BEC0010D8214B1B681968019B1A681E4B1B6827
:107BFC008A1A1A601C4B1A68019BDA611A4A019B9B
:107C0C0013602DE0019B1B680393174B1B680593B6
:107C1C00154B1B68049309E0049B1B68039AD31A49
:107C2C000393049B0593049BDB690493049B002B37
:107C3C0004D0049B1B68039A9A42EDD8049B002B3A
:107C4C0005D0049B1A68039BD21A049B1A60019BF3
:107C5C00039A1A60019B049ADA61059B019ADA6116
:107C6C0000BF06B0704700BFB439002000B587B024
:107C7C0001902A4B1B680393284B1B680593059BAB
:107C8C00049308E0049A019B9A4208D0049B059344
:107C9C00049BDB690493049B002BF3D100E000BF31
:107CAC00049B002B01D1002333E0059A049B9A42DC
:107CBC0014D11A4B1B68DB69184A1360174B1B68ED
:107CCC00002B0BD1164B01229A60164B00221A6026
:107CDC00154B01221A702F20FFF7E0FE049B1B6846
:107CEC000293049BDA69059BDA61059BDB690493BB
:107CFC00049B002B05D0049B1A68029B1A44049B1E
:107D0C001A60064B1B68039A9A4214BF0123002386
:107D1C00DBB2184607B05DF804FB00BFB439002095
:107D2C0000100140B8390020C739002008B51120D7
:107D3C00FFF75CFE00BF08BD08B51420FFF756FE28
:107D4C0000BF08BD00B583B00190019B5B69019A2F
:107D5C0092691046984700BF03B05DF804FB000021
:107D6C0000B585B02B4B1B68002B4ED00023019324
:107D7C00FFF706FF0246284B1B6819461046FFF713
:107D8C0007FF0290234B1B6803931DE0039B1B68AA
:107D9C00029A9A421CD3039B1B68029AD31A029331
:107DAC00039B1B68019A13440193039B0093039B51
:107DBC00DB690393009B1B7C002B05D0009B0022EE
:107DCC001A740098FFF7BEFF039B002BDED100E076
:107DDC0000BF124B1A78124B1B789A420CD1104BE5
:107DEC001B780133DAB20E4B1A700D4B1B78022B39
:107DFC0002D10B4B00221A70094B1B781946094A09
:107E0C00019B42F82130FFF797FF00BF05B05DF8EA
:107E1C0004FB00BFB4390020B8390020C43900205D
:107E2C00C5390020BC39002082B00190184B1A785B
:107E3C00184B1B789A4223D0154B1B780133DAB2BE
:107E4C00134B1A70124B1B78022B02D1104B0022D1
:107E5C001A700F4B1B781A460F4B53F82220019BBC
:107E6C001A60019B1A680D4B1B6813440B4A136074
:107E7C000A4B1B6823F07F43084A1360012303E07D
:107E8C00019B00221A600023184602B0704700BF05
:107E9C00C4390020C5390020BC390020B839002075
:107EAC0088B00390029101920023079338E0204B95
:107EBC001B680693069B1B68039A9A4206D2069B84
:107ECC001A68039BD21A069B1A602EE0069B1B684D
:107EDC00039AD31A0393069B1B68079A13440793C0
:107EEC00069B00221A60124B1B680593069BDB69EC
:107EFC000F4A1360069BDB68002B11D0029A079B7C
:107F0C00134423F07F42069B5A60069BDA68069B5B
:107F1C009A60019B1A68069BDA61019B059A1A60AC
:107F2C00034B1B68002BC2D100BF00BF08B07047C9
:107F3C00B439002000B589B0019000238DF81F30B2
:107F4C00664B1B680593AAE0019B002B05D0019B97
:107F5C000693069BDB69019361E0614B1B781A4623
:107F6C0013465B001344DB005D4A13440433049353
:107F7C005B4B1B780133DAB2594B1A70584B1A7899
:107F8C00574B9B789A4202D1554B00221A70049B96
:107F9C005B680693049B1B78032B1ED0032B7EDCA3
:107FAC00012B1FD0022B7AD1049B5B681846FFF77C
:107FBC005DFE0346002B02D001238DF81F30069B7B
:107FCC0000221A746BE0454B1B680393039B002241
:107FDC001A74039BDB69414A1360404B1B68002BEE
:107FEC00F1D15CE000BF069B1B7C002B00D056E05F
:107FFC00049B9A68069B5A60049BDA68069B9A60FD
:10800C00049B1A69069BDA60049B5A69069B9A6169
:10801C00344B1B78002B02D0069B00225A60069B27
:10802C005A68314B1B68D31A23F07F432F4A934273
:10803C000ED8069B5B682C4A126811461846FFF74F
:10804C00A7FD0246069B9B681A44069B1A6017E024
:10805C00254B1A68069B5B6819461046FFF798FD7E
:10806C000290069B9B68029A9A4206D2069B9A68DB
:10807C00029BD21A069B1A6002E0069B00221A6031
:10808C00069B00225A60069B00229A60069B0122E6
:10809C001A74069B0022DA610698FFF791FD019B8A
:1080AC00002B7FF451AF0E4B1A780D4B5B789A4234
:1080BC007FF44AAF9DF81F30002B04D1074B1B688F
:1080CC00059A9A4201D0012300E0002303F001033A
:1080DC00DBB2184609B05DF804FB00BFB4390020D0
:1080EC00A8380020C7390020B8390020FEFF7F00D7
:1080FC0010B588B00190274B1B68002B44D0254B42
:10810C001B681B680793FFF73BFD0690224B1B680F
:10811C00059305990698FFF73BFD0346033304933B
:10812C001E4B1B7883F00103DBB2002B01D0FFF751
:10813C00DFFC049A079B934238BF1346059A1344FD
:10814C000593059B23F07F4305930598FFF72CFDC2
:10815C00FFF716FD039006990398FFF719FD0346E8
:10816C00DC1C06990598FFF713FD03469C420DD9BC
:10817C00FFF706FD03461846FFF716FD2F20FFF705
:10818C008DFCFFF7D3FD01E0FFF7D2FC00BF08B078
:10819C0010BD00BFB4390020B8390020C63900200A
:1081AC0000B587B00023019300238DF81730194BCD
:1081BC001B680493184B1B6803936B461846FFF718
:1081CC0033FE03468DF80B309DF80B30002B08D096
:1081DC00009B01AA04991846FFF762FE01238DF853
:1081EC001730019B1846FFF7A5FE0346002B02D063
:1081FC0001238DF817309DF81730002B02D003980F
:10820C00FFF776FF054B00221A7000BF07B05DF830
:10821C0004FB00BFB8390020B4390020C739002056
:10822C0082B003468DF80730034A9DF8073053702F
:10823C0000BF02B0704700BFA838002084B0019086
:10824C00144B5B7801338DF80F30124B9B789DF8F3
:10825C000F209A4202D100238DF80F300D4B1B7862
:10826C009DF80F209A4201D100230FE0019B9DF84D
:10827C000F201A70074B5B781A4613465B001344A9
:10828C00DB00044A134404330293029B184604B0E7
:10829C00704700BFA838002000B589B00390029148
:1082AC00019200930023079300238DF816300DF1F3
:1082BC001603184600F0BEF90DF117031846FFF728
:1082CC00BDFF0690069B002B02D10423079318E0F8
:1082DC00069B01221A70069B039A5A60FFF750FC0A
:1082EC000246069B9A60069B029ADA60069B019AEC
:1082FC001A61069B009A5A619DF817301846FFF7D1
:10830C008FFF9DF81630184600F0AAF9079B002B3A
:10831C0001D1FFF711FD079B184609B05DF804FB6E
:10832C0000B587B001900B468DF803300023059300
:10833C0000238DF80E300DF10E03184600F07AF97B
:10834C000DF10F031846FFF779FF0490049B002BE7
:10835C0002D1042305930BE0049B9DF803201A70B3
:10836C00049B019A5A609DF80F301846FFF758FF8E
:10837C009DF80E30184600F073F9059B002B01D1C7
:10838C00FFF7DAFC059B184607B05DF804FB00000C
:10839C0008B50E4B0022C3F840210C4B0022C3F849
:1083AC0044210A4B0022C3F84821084B0022C3F891
:1083BC004C21064B0022C3F80021044B0022C3F8C9
:1083CC000421FFF7CDFC00BF08BD00BF0010014029
:1083DC0008B5FFF7E5FE00BF08BD000008B5FFF7C4
:1083EC00A7FB134B00221A70114B00225A70104B32
:1083FC000B229A700F4B00221A600F4B00221A703E
:10840C000E4B00221A701420FFF708FB07211420D2
:10841C00FFF71CFB1420FFF7BBFA0020FFF756FBFD
:10842C00FFF7AEFB0346064A13600023184608BD4F
:10843C00A8380020B4390020C4390020C5390020E8
:10844C00B839002086B003900B4601928DF80B30A2
:10845C00134B9B78002B01D108231EE0019B002BB2
:10846C0001D1072319E0039B002B01D1072314E052
:10847C00039B1B681B7C002B01D008230DE0039B86
:10848C001B680593059B00221A74059B9DF80B2015
:10849C005A74059B019A5A610023184606B070471E
:1084AC00A838002000B587B0039002910192039B7D
:1084BC000593144B9B78002B01D108231EE0039BE2
:1084CC00002B01D1082319E0029B042B01D80723B0
:1084DC0014E0059B5B69002B01D108230EE0059B82
:1084EC005B7C012B01D1029B00E000230493019BD8
:1084FC00049A02990598FFF7CFFE0346184607B079
:10850C005DF804FBA838002000B585B00190019BF4
:10851C0003930D4B9B78002B01D1082310E0019B9A
:10852C00002B03D0039B5B69002B01D1082307E0D0
:10853C00039B00221A7402210398FFF7F1FE0346F5
:10854C00184605B05DF804FBA838002082B0EFF3A4
:10855C0010830093009B019372B600BF019B1846D9
:10856C0002B0704762B600BF00BF704700B585B05F
:10857C000190FFF7EBFF0390164B9B68002B1BD170
:10858C00144B01229A60144BD3F88020134B1340E8
:10859C00104A1360104B114AC3F880200E4BD3F8CD
:1085AC0084300C4A53600C4B4FF0FF32C3F88420DC
:1085BC00019B00221A7002E0019B01221A70039B9E
:1085CC00002B01D1FFF7CEFF0023184605B05DF854
:1085DC0004FB00BFC839002000E100E0FC06FFBD31
:1085EC0000B585B003468DF80730104B9B68002B07
:1085FC0016D09DF80730002B12D1FFF7A7FF039080
:10860C000B4A0A4B1B681360094A084B5B685360A2
:10861C00064B00229A60039B002B01D1FFF7A2FFAF
:10862C000023184605B05DF804FB00BFC8390020D4
:10863C0000E100E000B583B0019000F02BF8034698
:10864C00012B03D00549432000F041F80198FFF7B6
:10865C008DFF00BF03B05DF804FB00BF980603005C
:10866C0000B583B003468DF8073000F013F80346CD
:10867C00012B03D00649512000F029F89DF8073052
:10868C001846FFF7ADFF00BF03B05DF804FB00BF59
:10869C009806030084B0EFF305830193019BC3F3A9
:1086AC0008030393039B002B0DD1EFF3148300936A
:1086BC00009B0293029B03F00103002B0CBF0123D0
:1086CC000023DBB200E00123184604B0704700B56C
:1086DC0085B003460091ADF80630BDF80630ADF814
:1086EC000830009B039302AB1A46002144F20200AF
:1086FC00FFF7A8F800BF05B05DF804FB10B487B015
:10870C0001900091019B009A53E8004F104643E8FA
:10871C00000191F0000FF7D1059404900391059B93
:10872C00184607B05DF8044B704710B487B0019041
:10873C000091019B009A53E8004F44EA020043E881
:10874C00000191F0000FF6D1059404900391049B65
:10875C00184607B05DF8044B704710B487B0019011
:10876C000091019B009A53E8004F04EA020043E891
:10877C00000191F0000FF6D1059404900391059B34
:10878C00184607B05DF8044B704710B487B00190E1
:10879C000091019B009A53E8004F04EB020043E860
:1087AC00000191F0000FF6D1059404900391049B05
:1087BC00184607B05DF8044B704710B487B00190B1
:1087CC000091019B009A53E8004FA4EB020043E890
:1087DC00000191F0000FF6D1059404900391049BD5
:1087EC00184607B05DF8044B704700B583B0019094
:1087FC0001210198FFF799FF0346184603B05DF875
:10880C0004FB00B583B0019000210198FFF7A5FF90
:10881C000346184603B05DF804FB000000B583B0B6
:10882C000190019B002B04D1054940F24510FFF744
:10883C004EFF019B1B681B79184603B05DF804FBC7
:10884C00EC06030000B583B00190019B002B04D112
:10885C00074940F25510FFF73AFF019B9A68019BBC
:10886C001B681B68D31ADBB2184603B05DF804FB17
:10887C00EC06030082B00190019B9B68D3F83C315D
:10888C00C3F34003DBB2002B14BF01230023DBB284
:10889C00184602B07047000000B597B00B900A91D3
:1088AC0009920B98FFF7E6FF0346002B05D0002238
:1088BC0000210B9800F0DEFE61E00A9B012B05D92C
:1088CC00304A02210B9800F0A9FD58E02E4A2F4B9C
:1088DC00D31A9B082E4AA2FB03231493002315934F
:1088EC0049E0159A1346DB009B1A9B001A46274B4E
:1088FC0013441393139B1B8B1293139B1B8B1A46C2
:10890C00129BD31A1193139B9A68139B5B68D31A0F
:10891C0010931398FFF782FF03460F931398FFF7FA
:10892C0091FF03460E93139B5B690D930E9B642280
:10893C0003FB02F2109BB2FBF3F30F9A642102FBD0
:10894C0001F1109AB1FBF2F2109907910F9906916F
:10895C000592109A04920E9A03920293119B019322
:10896C00129B00930D9B0B4A08210B9800F056FDAF
:10897C00159B01331593159A149B9A42B1D317B0DA
:10898C005DF804FB3807030014030300F80203002E
:10899C00254992244C07030000B583B001900B4687
:1089AC008DF80330019B002B03D10849E820FFF719
:1089BC008EFE019BDA689DF803300199098B01FB4F
:1089CC0003F31344184603B05DF804FB30080300AE
:1089DC0000B583B001900091019B002B03D1084995
:1089EC00F520FFF774FE009B019AD2689B1A019A3E
:1089FC00128BB3FBF2F3DBB2184603B05DF804FB49
:108A0C003008030000B585B00190019B002B01D10B
:108A1C000E234CE0019B1B68002B03D12649FF2041
:108A2C00FFF755FE019B5B68002B04D122494FF4E4
:108A3C008070FFF74CFE019B9B68002B04D11E49F4
:108A4C0040F20110FFF743FE019BDB68002B04D1C1
:108A5C0019494FF48170FFF73AFE019B1B8B002BD9
:108A6C0004D1154940F20310FFF731FE019B9A68BF
:108A7C00019B5B68D31A8DF80F30019B1B68019A20
:108A8C0052681A6007E0019B1A681368591C116040
:108A9C009DF80F201A709DF80F305A1E8DF80F207C
:108AAC00002BF0D1019B1B6800221A710023184681
:108ABC0005B05DF804FB00BF3008030000B585B0BD
:108ACC000190019B002B04D11F494FF49270FFF7CA
:108ADC00FEFD0023039300238DF80A300DF10A03E9
:108AEC001846FFF7A7FD019B1B681A68019B5B6882
:108AFC009A421FD9019B1B681A68013A1A601B68BD
:108B0C001B7819460198FFF747FF0390019B9A6861
:108B1C00019B1B681B68D31A8DF80B30019B1B68DB
:108B2C001B799DF80B209A4204D9019B1B689DF878
:108B3C000B201A719DF80A301846FFF791FD039B24
:108B4C00184605B05DF804FB3008030010B584B07E
:108B5C0001900091019B002B04D1154940F2471064
:108B6C00FFF7B5FD009B002B04D111494FF4A47005
:108B7C00FFF7ADFD009B039300238DF80B300DF137
:108B8C000B031846FFF756FD019B1B681C68621C03
:108B9C001A6003990198FFF71BFF034623709DF899
:108BAC000B301846FFF75CFD00BF04B010BD00BFD2
:108BBC003008030082B00190019B9B68D3F83C31D4
:108BCC00C3F34003DBB2002B14BF01230023DBB241
:108BDC00184602B07047000000B585B00190019BAB
:108BEC00002B0AD0074B43F001030393019B9B011D
:108BFC000293039B0298984700E000BF05B05DF814
:108C0C0004FB00BF400F030000B583B00190019B33
:108C1C001B69184601F00CFB00BF03B05DF804FBA8
:108C2C0082B00190019B9A6892F83C3143F00803A2
:108C3C0082F83C3100BF02B0704782B00190019BBA
:108C4C009A6892F83C316FF3C30382F83C3100BF51
:108C5C0002B0704782B00190019B9B68D3F83C3105
:108C6C00C3F3C003DBB2184602B0704700B583B043
:108C7C000190019B002B04D0019807F04DFA03469C
:108C8C0000E00023184603B05DF804FB10B588B073
:108C9C000390029101920093039B002B02D0029B44
:108CAC00002B03D12C49E120FFF711FD039B5B68DE
:108CBC001B68002B03D12849E220FFF708FD002395
:108CCC0007933DE0039B5B681B68DC68039B58685B
:108CDC00029A079BD11805AB019AA0470690069BF8
:108CEC00002B03D01C49EC20FFF7F1FC059B019AEB
:108CFC009A4203D21849ED20FFF7E9FC059B079A2D
:108D0C0013440793059B019AD31A0193059B002BDF
:108D1C0016D1039B9B681B78032B11D000BF039BC0
:108D2C009B68D3F83C31C3F34013DBB2002BF6D075
:108D3C00039B9A6892F83C316FF3451382F83C31EF
:108D4C00019B002BBED1009B002B02D0059A009BEF
:108D5C001A6000BF08B010BDB408030000B583B0A2
:108D6C0001900B468DF80330019B1B699DF8032085
:108D7C000349184601F07EFA00BF03B05DF804FB0E
:108D8C00FC08030010B586B0039002910192009389
:108D9C00039B002B02D0029B002B04D10D494FF4F6
:108DAC008870FFF794FC039B5B68002B04D1094986
:108DBC0040F21110FFF78BFC039B5B681B681C696E
:108DCC00039B5868009B019A0299A047059000BF2D
:108DDC0006B010BDB408030000B589B00390029131
:108DEC0001920093009B002B04D13B4940F22510CB
:108DFC00FFF76DFC0A9B002B04D137494FF493709D
:108E0C00FFF765FC029B002B34D1344A344BD31A48
:108E1C00DB08019A9A4229D200230693314B059321
:108E2C00002307931BE0079BDB002D4A134406939A
:108E3C00019B9B00059A13441A68069B5B681B6890
:108E4C001946104607F030F90346002B04D1069B57
:108E5C005A68009B1A603CE0079B013307931F4A3A
:108E6C001F4BD31ADB08079A9A42DCD3009B0022D3
:108E7C001A602EE0039B002B03D1009B00221A608A
:108E8C0027E0039B1B78002B10D0039B5B680A998F
:108E9C00019898470A9B1B68002B03D1009B00226A
:108EAC001A6016E0009B0A9A1A6012E0039B5A683B
:108EBC00019B1B0113441B68002B07D0039B5A68B2
:108ECC00019B1B011A44009B1A6002E0009B0022CC
:108EDC001A6009B05DF804FBB408030090020300AB
:108EEC00600203002032002000B583B00190019B8A
:108EFC00002B04D10C494FF4CE70FFF7E8FB019B1B
:108F0C001B69002B04D108494FF4CE70FFF7DFFB2F
:108F1C00019B1B69054A0649184601F0ABF900BFD5
:108F2C0003B05DF804FB00BFB40803002C0F030072
:108F3C000009030000B583B001900B468DF8033097
:108F4C009DF80330002B07D0019B1B699DF8032073
:108F5C000349184601F08EF900BF03B05DF804FB1D
:108F6C000409030000B583B001900B468DF8033063
:108F7C009DF80330002B07D0019B1B699DF8032043
:108F8C000349184601F076F900BF03B05DF804FB05
:108F9C000C09030000B583B001900B468DF803302B
:108FAC009DF80330002B07D0019B1B699DF8032013
:108FBC000349184601F05EF900BF03B05DF804FBED
:108FCC001409030000B583B001900B468DF80330F3
:108FDC009DF80330002B07D0019B1B699DF80320E3
:108FEC000349184601F046F900BF03B05DF804FBD5
:108FFC001C09030000B587B001900023ADF81630B2
:10900C000023ADF8143000238DF80B3000238DF8BD
:10901C001330019B9B68943380220021184607F083
:10902C00D5F8019B1B697749184601F023F9019883
:10903C00FFF7EAFD0023ADF81030D7E003AB0DF1DC
:10904C000B0101220198FFF79DFE039B002B04D11D
:10905C0040F2E730FFF7C0FDBFE09DF80B301B2B53
:10906C0006D0019B9B6893F894301B2B40F0B48086
:10907C009DF80B30522B40F09580019B9A689DF81F
:10908C0013301344002283F89420019B9B6893F8BF
:10909C0095305B2B06D0019B9B68002283F89420B3
:1090AC000B23AAE002238DF813301CE0BDF814301A
:1090BC001A46920013445B009AB2019B99689DF882
:1090CC001330581C8DF813000B4493F894309BB25A
:1090DC0013449BB2303BADF814309DF91330002B88
:1090EC0001DA0C2389E0019B9A689DF81330134434
:1090FC0093F894303B2BD9D19DF8133001338DF874
:10910C0013309DF91330002B1EDA0C2375E0BDF8DB
:10911C0016301A46920013445B009AB2019B996870
:10912C009DF81330581C8DF813000B4493F89430B1
:10913C009BB213449BB2303BADF816309DF9133003
:10914C00002B01DA0C2358E0019B9A689DF8133030
:10915C00134493F89430002BD9D1BDF81630FA2B68
:10916C0004D9019B9B68FA221A7205E0019B9B684B
:10917C00BDF81620D2B21A72BDF81430FA2B04D9ED
:10918C00019B9B68FA229A7205E0019B9B68BDF8D3
:10919C001420D2B29A72019B9B68002283F894200F
:1091AC0000232AE0019B9A689DF813309DF80B1060
:1091BC0013440A4683F894209DF8133001338DF83C
:1091CC0013309DF81330092B07D9019B9B680022A3
:1091DC0083F89420042310E000BF039B002B7FF442
:1091EC002DAFBDF810300133ADF81030BDF8103094
:1091FC00B3F57A7FFFF422AF0D23184607B05DF864
:10920C0004FB00BF300F030000B587B00390029140
:10921C000192029B002B04D12A494FF42870FFF7CE
:10922C0056FA019B002B04D1264940F2A120FFF7EE
:10923C004EFA0398FFF7DEFE0346002B18D1039B72
:10924C009B681B7AADF81630039B9B689B7AADF834
:10925C001430FA210398FFF785FEFA210398FFF7E3
:10926C00B1FE0398FFF7C6FE0346002B24D101E0A4
:10927C00062322E0039B9B681A7A029B1A70039BBD
:10928C009B689A7A019B1A70029B1A78BDF816306B
:10929C00DBB2D31ADBB219460398FFF74BFE019BE6
:1092AC001A78BDF81430DBB2D31ADBB21946039826
:1092BC00FFF770FE002300E00623184607B05DF8A8
:1092CC0004FB00BFB408030000B585B001900B4649
:1092DC008DF803309DF80330002B2ED0019B9B683A
:1092EC00DB7B9DF803209A4234D01B238DF8083089
:1092FC005B238DF8093031238DF80A303B238DF830
:10930C000B3033238DF80C309DF803302F33DBB248
:10931C008DF80D306D238DF80E3000238DF80F3045
:10932C00019B9B689DF80320DA73019B1B6902AAC1
:10933C000A49184600F09EFF0DE0019B9B689DF8C2
:10934C000320DA73019B1B69054A0449184600F097
:10935C0091FF00E000BF05B05DF804FB00090300BD
:10936C00480F030000B585B001900B468DF8033013
:10937C009DF80330002B29D0019B9B681B7C9DF82A
:10938C0003209A4221D01B238DF808305B238DF8E3
:10939C00093034238DF80A309DF803302F33DBB2BB
:1093AC008DF80B306D238DF80C3000238DF80D30BB
:1093BC00019B9B689DF803201A74019B1B6902AAF0
:1093CC000449184600F056FF00E000BF05B05DF8F8
:1093DC0004FB00BF0009030082B001900091019BC7
:1093EC009B680F331B889AB2009B1A8000BF02B097
:1093FC00704700B583B001900091009B1B78194613
:10940C000198FFF761FF009B5B7819460198FFF705
:10941C00A9FF00BF03B05DF804FB00000CB400B55D
:10942C0085B001900B468DF80330069B002B04D1C0
:10943C002B4940F67720FFF74AF9019B002B04D10A
:10944C00274940F67820FFF742F9019B9B68002BD7
:10945C0007D0019B5B68002B03D0019B1B68002B82
:10946C0004D11F4940F67920FFF731F9002303930B
:10947C0007AB0393019B9B68D3F83C31C3F3800388
:10948C00DBB2002B1ED0019B9B68DB7B9DF803207D
:10949C009A4217D002AB19460198FFF79DFF9DF831
:1094AC00033019460198FFF70FFF019B1B6903AAB4
:1094BC000699184601F0BEF802AB19460198FFF761
:1094CC0098FF07E0019B1B6903AA0699184601F057
:1094DC00B1F800BF00BF05B05DF804EB02B07047F7
:1094EC00B408030000B589B00390029101928DF885
:1094FC000330029B002B00F0B8809DF80330002B4A
:10950C0005D0019BDBB219460398FFF72BFD002316
:10951C00069302E0069B01330693029A069B1344C2
:10952C001B78184606F073FD0346002BF2D100237E
:10953C0005930298FFF79AFB0246069BD31A0793F2
:10954C00039B9B685B7B1A46019BD31A079A9A4232
:10955C0038D80023059324E0069A059B1344029AFD
:10956C0013441B780A2B19D10398FFF74DFB029A71
:10957C00069BD1180023059A0398FFF787FB059AE1
:10958C00069B1344013306930398FFF7ADFC019B34
:10959C00DBB219460398FFF7E5FC06E0059B0133A7
:1095AC000593059A079B9A42D6D3039B1869029A96
:1095BC00069B1344194600F05DFE00BF0398FFF7AD
:1095CC0093FC53E0039B9B685B7B1A46019BD31A6D
:1095DC000793069A059B1344029A13441B7818466A
:1095EC0006F015FD0346002B09D0059B0793069A40
:1095FC00059B1344029A13441B780A2B0BD0059A33
:10960C00019B1344039A9268527B934205D2059BAB
:10961C0001330593DDE700BF00E000BF0398FFF7BF
:10962C00F3FA029A069BD1180023079A0398FFF7C6
:10963C002DFB069A079B1344069302E0069B01330D
:10964C000693029A069B13441B78184606F0DFFC1F
:10965C000346002BF2D10398FFF746FC019BDBB2CB
:10966C0019460398FFF77EFC61E700BF09B05DF86F
:10967C0004FB000030B591B0059004910392059B5A
:10968C00002B04D1A04940F6F820FFF720F8059BE9
:10969C009B68002B07D0059B5B68002B03D0059BB8
:1096AC001B68002B04D1984940F6F920FFF70FF8FE
:1096BC000023ADF83E309548FFF7D8FA03469CB22C
:1096CC009348FFF7D3FA03469BB2E31AADF83C304C
:1096DC00059B9B685B681B688E4A00928E4A08212A
:1096EC000598FFF79BFE059B9B685B681B681846FB
:1096FC00FFF7BCFA03469CB28648FFF7B7FA03465D
:10970C009BB22344ADF83E30059B9B685B6859685F
:10971C00BDF83E2000230598FFF7E4FE7F4A0821A0
:10972C000598FFF77BFE039B002B4AD0049B002B74
:10973C0047D000230E9340E00E9A13465B0013446F
:10974C009B001A46049B13445B681846FFF78EFA7D
:10975C0004460E9A13465B0013449B001A46049B66
:10976C0013441B681846FFF781FA0346E218BDF84C
:10977C003C309A421ED90E9A13465B0013449B0050
:10978C001A46049B13445B681846FFF76FFA0346AE
:10979C009CB20E9A13465B0013449B001A46049B22
:1097AC0013441B681846FFF761FA03469BB2234427
:1097BC00ADF83C300E9B01330E930E9A039B9A42EC
:1097CC00BAD35348FFF752FA0346554A127813445A
:1097DC009AB2BDF83C301344ADF83C30BDF83C3087
:1097EC004A4A00924F4A08210598FFF717FE4C4B46
:1097FC001B789AB2BDF83C3013449BB20133ADF8E0
:10980C003E30BDF83E20002347490598FFF76AFE1D
:10981C00049B002B00F0018100230D93F8E00D9ABE
:10982C0013465B0013449B001A46049B13445B686D
:10983C00002B7DD00D9A13465B0013449B001A46F7
:10984C00049B13441B68002B72D00D9A13465B00CB
:10985C0013449B001A46049B134459680D9A1346F3
:10986C005B0013449B001A46049B13441B68019332
:10987C00274B00930B462D4A08210598FFF7CEFD88
:10988C00274B1B789AB2BDF83C301344ADF83E30F0
:10989C00BDF83E30DCB20D9A13465B0013449B00BE
:1098AC001A46049B13445B681846FFF7DFF903461E
:1098BC00DDB20D9A13465B0013449B001A46049BC1
:1098CC0013441B681846FFF7D1F90346DBB22B444F
:1098DC00DAB2134B1B781344DDB20D48FFF7C6F90F
:1098EC000346DBB22B44DBB2E31ADBB21946059814
:1098FC00FFF738FB3A210598FFF730FABDF83E30F8
:10990C000133ADF83E3062E0B40803004C0F0300A5
:10991C00580F03005C0F0300C8090300D0090300B3
:10992C00600F0300DC090300E4090300F8090300DD
:10993C000D9A13465B0013449B001A46049B134478
:10994C005B68002B1CD0BDF83C100D9A13465B00D5
:10995C0013449B001A46049B13445B6800930B460C
:10996C00704A08210598FFF759FD6F4B1B789AB286
:10997C00BDF83C3013449BB20133ADF83E3026E0C9
:10998C000D9A13465B0013449B001A46049B134428
:10999C001B68002B1BD0BDF83C100D9A13465B00C6
:1099AC0013449B001A46049B13441B6800930B46FC
:1099BC005C4A08210598FFF731FD5B4B1B789AB286
:1099CC00BDF83C3013449BB20133ADF83E300D9AD8
:1099DC0013465B0013449B001A46049B13449B687C
:1099EC00002B0FD00D9A13465B0013449B001A46B4
:1099FC00049B13449968BDF83E2000230598FFF79B
:109A0C0071FD02E00598FFF76FFA0D9B01330D9382
:109A1C000D9A039B9A42FFF402AF059B9B685B680F
:109A2C009B68002B76D0059B9B685B689B680B93AF
:109A3C00002306930023ADF83E300023ADF83C30F4
:109A4C0000230C930C9A531C0C9306A907AB0093A0
:109A5C000B4601210B98FFF7BFF9069B002B12D088
:109A6C00069B1B681846FFF701F90246BDF83C300F
:109A7C009A42E7D9069B1B681846FFF7F7F803468E
:109A8C00ADF83C30DEE700BF0C9B012B44D0274ADD
:109A9C0008210598FFF7C2FC00230C930C9A531C69
:109AAC000C9306A907AB00930B4601210B98FFF70B
:109ABC0093F9069B002B31D01B4B1B789AB2BDF847
:109ACC003C301344ADF83E30BDF83E20069B1B687D
:109ADC0000931346134A08210598FFF79FFC124B7D
:109AEC001B789AB2BDF83E3013449BB20133ADF8EB
:109AFC003E30069B5B68002B08D0069B5968BDF86E
:109B0C003E2000230598FFF7EDFCC7E70598FFF70B
:109B1C00EBF9C3E700BF02E000BF00E000BF11B0EB
:109B2C0030BD00BFDC090300600F0300040A030012
:109B3C0000B585B00390019200930B468DF80B3065
:109B4C000398FFF737F80346002B06D0009A0199CB
:109B5C000398FFF78FFD01230FE09DF80B30002BCE
:109B6C000AD0039B9B685B681B68064A022103981A
:109B7C00FFF754FC012300E00023184605B05DF804
:109B8C0004FB00BF440A030000B585B003900291AA
:109B9C000192039B002B04D12B4940F67C40FEF72D
:109BAC0096FD039B9B68002B07D0039B5B68002BE7
:109BBC0003D0039B1B68002B04D1234940F67D4046
:109BCC00FEF785FD029B022B0BD10398FEF7F2FFEB
:109BDC000346002B05D0002200210398FFF74AFD15
:109BEC002FE0039B002B04D1174940F68540FEF76C
:109BFC006EFD039B1B69002B04D1134940F6854075
:109C0C00FEF765FD039B1B69104A1149184600F0CD
:109C1C0031FB039B002B04D10B4940F68640FEF729
:109C2C0056FD039B1B69002B04D1074940F6864067
:109C3C00FEF74DFD039B1B69064A0549184600F0CB
:109C4C0019FB05B05DF804FBB4080300640F0300B6
:109C5C0000090300680F030000B585B00390029162
:109C6C000192039B002B04D1174940F68B40FEF761
:109C7C002EFD039B9B68002B07D0039B5B68002B7E
:109C8C0003D0039B1B68002B04D10F4940F68C407A
:109C9C00FEF71DFD029B012B08D0029B022B0BD162
:109CAC000398FEF787FF0346002B05D00022002106
:109CBC000398FFF7DFFC04E0044A02210398FFF746
:109CCC00ADFB05B05DF804FBB4080300A409030068
:109CDC0000B585B0039002910192029B012B14BF39
:109CEC0001230023D9B2002300220398FFF720FFA1
:109CFC000346002B08D1039B9A6892F83C316FF312
:109D0C00820382F83C3100E000BF05B05DF804FB33
:109D1C0000B585B0039002910192029B012B14BFF8
:109D2C0001230023D9B2002300220398FFF700FF80
:109D3C000346002B08D1039B9A6892F83C3143F000
:109D4C00040382F83C3100E000BF05B05DF804FB71
:109D5C0000B587B0059004910392059B002B04D1AC
:109D6C001F4940F6AC40FEF7B2FC059B9B68002BEC
:109D7C0007D0059B5B68002B03D0059B1B68002B51
:109D8C0004D1174940F6AD40FEF7A1FC049B012B12
:109D9C0005D1002200210598FFF76CFC1DE0049B07
:109DAC00022B14BF01230023D9B2002300220598F3
:109DBC00FFF7BEFE0346002B0ED1039B1A68039BD4
:109DCC0004331B680193074B00931346064A022188
:109DDC000598FFF723FB00E000BF07B05DF804FB1C
:109DEC00B40803006C0A0300600A030000B587B0D6
:109DFC00059004910392049B022B8CBF012300233A
:109E0C00D9B2002300220598FFF792FE0346002BDF
:109E1C0020D1049B022B0ED1039B1A68039B0433A5
:109E2C001B6801930D4B009313460D4A02210598B4
:109E3C00FFF7F4FA0FE00598FEF70CFF0346002B32
:109E4C0001D0084B00E0084B084A08210598FFF7A1
:109E5C00E5FA00E000BF07B05DF804FB6C0A0300F4
:109E6C00600A0300840A0300880A03008C0A0300BA
:109E7C0000B585B0039002910192029B012B14BF97
:109E8C0001230023D9B2002300220398FFF750FED0
:109E9C000346002B03D10398FEF7CFFE00E000BF72
:109EAC0005B05DF804FB00B585B0039002910192FA
:109EBC00029B012B14BF01230023D9B200230022E3
:109ECC000398FFF735FE0346002B03D10398FEF7EA
:109EDC00A7FE00E000BF05B05DF804FB00B58DB037
:109EEC00059004910392059B002B04D12D4940F65B
:109EFC00F240FEF7ECFB059B9B68002B07D0059B03
:109F0C005B68002B03D0059B1B68002B04D12549F3
:109F1C0040F6F340FEF7DBFB049B012B14BF01233F
:109F2C000023D9B2002300220598FFF701FE034657
:109F3C00002B33D100230B93059B9B68D3F8343152
:109F4C000A930A9B002B23D00B9B072B20D807A925
:109F5C00002309220A9800F08BFE059B9B6803F1F5
:109F6C0094019DF8243001331A4609230A9800F015
:109F7C007FFE089B0A930B9B5A1C0B92059A9268C6
:109F8C0094320092084A08210598FFF747FAD8E75F
:109F9C00059B9B68002283F8942000E000BF0DB065
:109FAC005DF804FBB4080300A00A030000B587B0F9
:109FBC00059004910392049B012B05D100220021F2
:109FCC000598FFF757FB1CE0049B022B0ED1039B5B
:109FDC001A68039B04331B6801930B4B00931346C5
:109FEC000A4A02210598FFF719FA0AE0049B022B92
:109FFC008CBF01230023D9B2002300220598FFF760
:10A00C0097FD07B05DF804FB6C0A0300600A0300BF
:10A01C0000B58BB0079006910592069B012B14BFDF
:10A02C0001230023D9B2002300220798FFF780FDFB
:10A03C000346002B2BD1079BDB68DB68184600F02E
:10A04C0099FF03468DF827309DF82730642203FBD7
:10A05C0002F2079BDB68DB689B68B2FBF3F38DF8BD
:10A06C002630079B9B68D3F82C019DF826309DF871
:10A07C0027200799C968C9688968029101920093E1
:10A08C000346054A08210798FFF7C8F900E000BF0E
:10A09C000BB05DF804FB00BFAC0A030000B585B043
:10A0AC00039002910192029B012B14BF0123002308
:10A0BC00D9B2002300220398FFF73AFD0346002B88
:10A0CC000BD1039B9B680022C3F82C21039BDB68FC
:10A0DC00DB68184600F062FF00E000BF05B05DF8D9
:10A0EC0004FB000000B585B0039002910192029B25
:10A0FC00012B14BF01230023D9B2002300220398A3
:10A10C00FFF716FD0346002B20D1039B002B04D137
:10A11C00104940F65150FEF7DAFA039B1B69002BED
:10A12C0004D10C4940F65150FEF7D1FA039B1B6940
:10A13C00094A0A49184600F09DF8039B9B68502277
:10A14C005A73039B9B6818221A7300E000BF05B07A
:10A15C005DF804FBB4080300700F03000009030052
:10A16C0000B587B0059004910392059B002B04D198
:10A17C002B4940F65850FEF7AAFA059B9B68002B1A
:10A18C0007D0059B5B68002B03D0059B1B68002B3D
:10A19C0004D1234940F65950FEF799FA049B012B40
:10A1AC001BD1059B9B6803F10D01059B9B680C3330
:10A1BC001A460598FFF728F80346002B2AD0059B72
:10A1CC009B6850225A73059B9B6818221A73154A78
:10A1DC0004210598FFF722F91CE0049B022B8CBF8D
:10A1EC0001230023D9B2002300220598FFF7A0FC1D
:10A1FC000346002B10D1039B1A68039B04331B6886
:10A20C000193094B00931346084A02210598FFF766
:10A21C0005F902E000BF00E000BF07B05DF804FBE9
:10A22C00B4080300E80A03006C0A0300600A030088
:10A23C0000B583B00190019B002B03D10C49312058
:10A24C00FEF745FA019B9B68002B0CD0019B5B69C8
:10A25C00019A1069019A1168019A92689847019BBA
:10A26C0000229A6000E000BF03B05DF804FB00BF61
:10A27C00780F03000EB400B584B00190019B002B45
:10A28C0003D118494220FEF722FA019B5B69002B8F
:10A29C0003D114494320FEF71AFA019B1B68002BCB
:10A2AC0003D110494420FEF712FA019B5B68002B86
:10A2BC0003D10C494520FEF70AFA059B002B0AD066
:10A2CC000023039306AB039303AB1A46059901983D
:10A2DC0000F0B0F900E000BF04B05DF804EB03B08F
:10A2EC00704700BF780F030000B583B001900B4698
:10A2FC008DF80330019B1A68019B9B68581C0199CF
:10A30C00886013449DF803201A70019B9A68019B86
:10A31C005B689A4202D30198FFF78AFF00BF03B033
:10A32C005DF804FB00B587B0039002910192009395
:10A33C0000230593009B03F00103002B24D00BE0BA
:10A34C00029B01330293059B013305939DF8133057
:10A35C0019460398FFF7C8FF029B1B788DF8133042
:10A36C009DF81330002BEBD106E0019B013B0193D0
:10A37C0020210398FFF7B8FF019A059B9A422ED92A
:10A38C00019B002BF1D12AE0029B002B0BD00298F1
:10A39C0005F0C2FE059006E0019B013B01932021D4
:10A3AC000398FFF7A1FF019A059B9A420FD9019BD5
:10A3BC00002BF1D10BE0029B01330293059B01337F
:10A3CC0005939DF8133019460398FFF78DFF029BF8
:10A3DC001B788DF813309DF81330002BEBD100BF98
:10A3EC0007B05DF804FB000000B589B00390029142
:10A3FC0001920093029B07930123069307E0079AAF
:10A40C00019BB2FBF3F30793069B01330693079A68
:10A41C00019B9A42F3D2009A069B9A4201D9009B67
:10A42C0006930B9B03F00103002B22D10A9B002BFC
:10A43C001FD00B9B03F00203002B06D0009B002BBC
:10A44C0003D130238DF8173002E020238DF817301C
:10A45C0008E00A9B013B0A939DF8173019460398B4
:10A46C00FFF742FF0A9B002B03D0069A0A9B9A42E5
:10A47C00EFD301230793009B012B03D9009B013BD6
:10A48C00009309E0029A079BB2FBF3F30493049A3E
:10A49C00019B9A4200D205E0079B019A02FB03F351
:10A4AC000793E8E7029A079BB2FBF3F30493049B30
:10A4BC00079A02FB03F3029AD31A0293154A049BE0
:10A4CC0013441B7819460398FFF70EFF079A019B5C
:10A4DC00B2FBF3F30793079B002BE3D10B9B03F029
:10A4EC000103002B11D00A9B002B0ED006E00A9B17
:10A4FC00013B0A9320210398FFF7F6FE0A9B002BE1
:10A50C0003D0069A0A9B9A42F1D300BF09B05DF8BA
:10A51C0004FB00BF0810030000B589B0059004913E
:10A52C0003920293049B002BB8BF5B42069301235A
:10A53C00079307E0039B069A92FBF3F30693079BA2
:10A54C0001330793039B069A9A42F3DA029A079B0C
:10A55C009A4201D9029B07930A9B002B0AD0049BB9
:10A56C00002B04DB0B9B03F00403002B02D00A9B93
:10A57C00013B0A930B9B03F00203002B02D0029BBE
:10A58C00002B16D00B9B03F00103002B11D10A9B5F
:10A59C00002B0ED006E00A9B013B0A932021059864
:10A5AC00FFF7A2FE0A9B002B03D0079A0A9B9A4244
:10A5BC00F1D3049B002B07DA049B5B4204932D21FF
:10A5CC000598FFF791FE08E00B9B03F00403002BAA
:10A5DC0003D02B210598FFF787FE0B9B03F002039A
:10A5EC00002B19D00B9B03F00103002B14D1029B01
:10A5FC00002B11D10A9B002B0ED006E00A9B013BCD
:10A60C000A9330210598FFF76FFE0A9B002B03D0AD
:10A61C00079A0A9B9A42F1D304990B9B01930A9BCC
:10A62C000093029B039A0598FFF7DEFE00BF09B06A
:10A63C005DF804FB00B58FB0059004910392059B67
:10A64C00002B04D1AD494FF49F70FEF740F8059BE9
:10A65C005B69002B04D1A9494FF4A070FEF737F8C1
:10A66C00059B1B68002B04D1A44940F24110FEF756
:10A67C002EF8059B5B68002B04D1A0494FF4A17008
:10A68C00FEF725F8049B002B00F09381049B1B78AC
:10A69C008DF83730049B013304939DF83730002B31
:10A6AC0000F07E819DF83730252B40F06D81002322
:10A6BC000A9301230C93049B1B788DF837309DF87B
:10A6CC003730302B0DD0302B1BDC2B2B11D02D2BFE
:10A6DC0017D10A9B43F001030A93049B01330493A3
:10A6EC0012E00A9B43F002030A93049B0133049388
:10A6FC000AE00A9B43F004030A93049B013304937E
:10A70C0002E000230C9300BF0C9B002BD3D1002341
:10A71C0009939DF837302A2B0CD1039B1B68191D0C
:10A72C00039A11601B68099A13440993049B013323
:10A73C0004931AE0049B1B788DF837309DF8373062
:10A74C002F2B12D99DF83730392B0ED8049B01339F
:10A75C000493099A13469B0013445B001A469DF818
:10A76C0037301344303B0993D3E700230B93049BFE
:10A77C001B788DF837309DF837302E2B1DD1049B6C
:10A78C0001330493049B1B788DF837309DF83730D8
:10A79C002F2B12D99DF83730392B0ED8049B01334F
:10A7AC0004930B9A13469B0013445B001A469DF8C6
:10A7BC0037301344303B0B93E4E7049B1B788DF844
:10A7CC0037309DF837306C2B03D09DF83730682B21
:10A7DC0007D1049B01330493049B1B788DF837300D
:10A7EC00EFE79DF83730252B00F0C480252BC0F205
:10A7FC00C680782B00F3C380582BC0F2C080583B26
:10A80C00202B00F2BC8001A252F823F00DA902000B
:10A81C008BA902008BA902008BA902008BA9020054
:10A82C008BA902008BA902008BA902008BA9020044
:10A83C008BA902008BA902009DA80200BFA80200F0
:10A84C008BA902008BA902008BA902008BA9020024
:10A85C00BFA802008BA902008BA902008BA90200E1
:10A86C008BA902008BA902008BA902004DA9020042
:10A87C008BA902008BA9020031A902008BA902004E
:10A88C00E3A802008BA902008BA902000DA902000B
:10A89C00039B1B68191D039A11601B680C930C9B7E
:10A8AC008DF81F309DF81F3019460598FFF71CFDD9
:10A8BC0066E0039B1B68191D039A11601B680C93BF
:10A8CC000A9B0193099B00930B9B0A220C990598F8
:10A8DC00FFF722FE54E0039B1B68191D039A1160BD
:10A8EC001B680C930C990A9B0193099B00930B9B7F
:10A8FC000A220598FFF778FD42E000BFBC0F030069
:10A90C00039B1B68191D039A11601B680C930C990F
:10A91C000A9B0193099B00930B9B10220598FFF750
:10A92C0063FD2DE0039B1B68191D039A11601B68C6
:10A93C0008930A9B099A08990598FFF7F3FC1FE006
:10A94C00039B1B68191D039A11601B680C93302123
:10A95C000598FFF7C9FC78210598FFF7C5FC0C9901
:10A96C000023019308230093082310220598FFF776
:10A97C003BFD05E025210598FFF7B6FC00E000BF84
:10A98C00049B0133049305E09DF837301946059874
:10A99C00FFF7AAFC049B1B78002B7FF477AE00E03A
:10A9AC0000BF059B1B7B002B04D00598FFF740FCD8
:10A9BC0000E000BF0FB05DF804FB00BF00B583B032
:10A9CC0001900198FEF71EF80346184603B05DF897
:10A9DC0004FB00B58BB001900091019B1B8B043BD9
:10A9EC000793009A079B1344DA1C079BB2FBF3F303
:10A9FC008DF81B300198FEF761F80590059B002B34
:10AA0C0001D1002338E0059B00221A71059B01221D
:10AA1C005A71079B9AB2059BDA80059B09939DF8A6
:10AA2C001B30013B0493099B019A1A600023089385
:10AA3C001DE00198FEF742F80390039B002B0ED00B
:10AA4C00059B5B790133DAB2059B5A71099B039A1A
:10AA5C001A60039B019A1A60039B099304E0059802
:10AA6C0000F00EF8002307E0089B01330893089AC6
:10AA7C00049B9A42DDD3059B18460BB05DF804FB92
:10AA8C0000B58BB00190019B0793079B5B798DF808
:10AA9C001B30019B08939DF81B30013B0593002351
:10AAAC00099305E0089B1B680893099B01330993E4
:10AABC00099A059B9A42F5D3089B1B680493019B4A
:10AACC000893002309930BE0089B1B6803930899D8
:10AADC000498FEF73BF8039B0893099B01330993F9
:10AAEC009DF81B30099A9A42EED300BF00BF0BB001
:10AAFC005DF804FB00B585B00190019B0393039BAB
:10AB0C00043301211846FDF740FE00BF05B05DF887
:10AB1C0004FB00B587B00190019B0593059B0433A2
:10AB2C0001211846FDF749FE0346039303AB04933A
:10AB3C00049B1B78002B02D10198FFF7A1FF00BFEB
:10AB4C0007B05DF804FB000000B58DB003900291D6
:10AB5C0001920093039B0693069BDB880593039B52
:10AB6C000B93009B1A1D059BB2FBF3F30A93009BFE
:10AB7C000433059AB3FBF2F2059901FB02F29B1A1E
:10AB8C000993009A019B1A44059B1344DA1C059BFC
:10AB9C00B2FBF3F38DF81330069B5B799DF8132011
:10ABAC009A420AD92849BA20FDF791FD05E00B9B82
:10ABBC001B680B930A9B013B0A930A9B002BF6D153
:10ABCC0000230893059A099BD31A0793079A019BB4
:10ABDC00934228BF134607932DE09DF83830002B85
:10ABEC000BD0029A089BD0180B9A099B1344043380
:10ABFC00079A194605F0C0FA0AE00B9A099B134410
:10AC0C00181D029A089B1344079A194605F0B4FACA
:10AC1C00002309930B9B1B680B93019A079BD31A78
:10AC2C000193089A079B13440893059A019B93423E
:10AC3C0028BF13460793019B002BCED100BF00BF4A
:10AC4C000DB05DF804FB00BF1810030000B587B011
:10AC5C00059004910392029300230093029B039AA4
:10AC6C0004990598FFF770FF00BF07B05DF804FB6F
:10AC7C0000B587B0059004910392029301230093D1
:10AC8C00029B039A04990598FFF75EFF00BF07B07B
:10AC9C005DF804FB82B003468DF807309DF8073051
:10ACAC0003F01F0206499DF907305B09012000FAE9
:10ACBC0002F2603341F8232000BF02B0704700BF9E
:10ACCC0000E100E000B583B00190019B002B03D1A3
:10ACDC0006497220FDF7FBFC019B00221A60BFF3B2
:10ACEC005F8F00BF00BF03B05DF804FBCC10030006
:10ACFC0041DF704700BF184600B585B000238DF8C2
:10AD0C0003300DF103031846FDF794FCF1EE103AF5
:10AD1C000193019B0393039B23F09F030293029BDC
:10AD2C00E1EE103A00BFBFF35F8F00BF2620FFF7A4
:10AD3C00B1FF9DF803301846FDF792FC039B03F01E
:10AD4C000703002B03D004497620FDF7C0FC00BF9D
:10AD5C0005B05DF804FB00BF1411030008B5064BE9
:10AD6C0000221A700548FFF7ADFF0549054800F0B1
:10AD7C002BF90023184608BDD8390020D4390020FF
:10AD8C0064110300DC39002000B583B0FFF7B4FF79
:10AD9C0004F098FE0346002B0ED0FFF7A9FF01909C
:10ADAC00019B002B0ED0019B022B0BD0074940F2CC
:10ADBC005910FDF78CFC05E020BF00BF40BF00BF61
:10ADCC0020BF00BF00BF03B05DF804FB14110300EB
:10ADDC0082B00190019B9B68D3F83C31C3F34003D4
:10ADEC00DBB2002B14BF01230023DBB2184602B0E8
:10ADFC007047000000B595B00B900A9109920B9822
:10AE0C00FFF7E6FF0346002B05D0002200210B982C
:10AE1C00FEF730FC5CE00A9B012B05D92E4A02217F
:10AE2C000B98FEF7FBFA53E02C4A2D4BD31A9B08D8
:10AE3C002C4AA2FB032312930023139344E0139A8E
:10AE4C001346DB009B1A9B001A46254B13441193A7
:10AE5C00119BDB681093119B9B680F93119800F06A
:10AE6C0089F80E90119800F061F80D90119B5B69B8
:10AE7C000C930D9B642203FB02F20F9BB2FBF3F3CA
:10AE8C000E9A642102FB01F10F9AB1FBF2F21199B7
:10AE9C00097C002901D1144900E0144907910F994C
:10AEAC0006910E99059104920F9A03920D9A0292B3
:10AEBC000193109B00930C9B0D4A08210B98FEF7F5
:10AECC00ADFA139B01331393139A129B9A42B6D388
:10AEDC0015B05DF804FB00BF7011030014030300F0
:10AEEC0014030300254992248411030090110300DC
:10AEFC009C11030084B00190019B1B681B68039399
:10AF0C00019B1B685B680293029A039B9A4203D3D2
:10AF1C00029A039BD31A06E0019B9A68039BD21AF0
:10AF2C00029B13440133184604B0704700B585B03A
:10AF3C000190019B002B04D10D4940F2FD10FDF74F
:10AF4C00C6FB00238DF80B300DF10B031846FDF7F3
:10AF5C0071FB0198FFF7CEFF03909DF80B3018465C
:10AF6C00FDF77EFB039B184605B05DF804FB00BFA4
:10AF7C006C12030000B583B00190019B002B04D12F
:10AF8C0005494FF40670FDF7A2FB019B1B689B68FB
:10AF9C00184603B05DF804FB6C12030000B583B0D7
:10AFAC000190019B002B04D1064940F21E20FDF7B5
:10AFBC008EFB019B1B6800229A6000BF03B05DF8FA
:10AFCC0004FB00BF6C12030000B583B0019000912C
:10AFDC00019B002B03D110495020FDF778FB009BFF
:10AFEC00002B03D10C495120FDF771FB019B009AFA
:10AFFC001A60019B1B681A68019B5A60019B5A6876
:10B00C00019B1B685B689A4202D1019B00225A602B
:10B01C0000BF03B05DF804FBF012030000B583B071
:10B02C000190019B002B03D114496320FDF74FFBCA
:10B03C00019B1B68002B03D110496420FDF747FBD3
:10B04C00019B5B68002B14D0019B5B681A46019B2B
:10B05C001B689B6813441A46019B5A60019B5A68F3
:10B06C00019B1B685B689A4204D1019B00225A60C9
:10B07C0000E000BF03B05DF804FB00BFF01203005A
:10B08C0000B585B00190019800F00EF80390039B79
:10B09C00002B01D0039B00E0024B184605B05DF875
:10B0AC0004FB00BF5813030086B00190164B0593A8
:10B0BC00164B04931FE0049A059BD31ADB10DA0F8E
:10B0CC0013445B10DB00059A13440393039B1B682A
:10B0DC000293029A019B9A4202D9039B04930AE0C1
:10B0EC00029A019B9A4203D2039B0833059302E018
:10B0FC00039B5B6804E0059A049B9A42DBD3002314
:10B10C00184606B0704700BF58170300801803009C
:10B11C00BFF34F8F00BF074BDB6803F4E0620549B8
:10B12C00054B1343CB60BFF34F8F00BF00BF00BF75
:10B13C00FCE700BF00ED00E00400FA05024B034AF7
:10B14C001A6000BF704700BFD03200200090D003BF
:10B15C0008B500F027F90346002B0ED04FF08043C2
:10B16C000022C3F80C214FF080430022C3F81021B9
:10B17C004FF080430022C3F8382500F031F9034624
:10B18C00002B76D04FF080537D4AD3F80434C2F8AC
:10B19C0020354FF080537A4AD3F80834C2F824355E
:10B1AC004FF08053764AD3F80C34C2F828354FF060
:10B1BC008053734AD3F81034C2F82C354FF08053B7
:10B1CC006F4AD3F81434C2F830354FF080536C4AC0
:10B1DC00D3F81834C2F834354FF08053684AD3F89A
:10B1EC001C34C2F840354FF08053654AD3F82034F4
:10B1FC00C2F844354FF08053614AD3F82434C2F876
:10B20C0048354FF080535E4AD3F82834C2F84C3599
:10B21C004FF080535A4AD3F82C34C2F850354FF0C3
:10B22C008053574AD3F83034C2F854354FF080531A
:10B23C00534AD3F83434C2F860354FF08053504A37
:10B24C00D3F83834C2F864354FF080534C4AD3F8F5
:10B25C003C34C2F868354FF08053494AD3F8403437
:10B26C00C2F86C354FF08053454AD3F84434C2F8D9
:10B27C00703500F0D3F80346002B02D0414B424A04
:10B28C001A6000F0DDF80346002B03D03F4BFB2285
:10B29C00C3F8182500F0E6F80346002B0AD03C4B07
:10B2AC001B6823F00F023B4B1B6803F00F0338495C
:10B2BC0013430B6000F0E8F80346002B03D0364B29
:10B2CC004FF400721A6000F0F1F80346002B0DD019
:10B2DC004FF08043D3F8003403F00103002B05D06A
:10B2EC004FF080436FF00102C3F800242B4BD3F8CE
:10B2FC0088302A4A43F47003C2F88830BFF34F8F6A
:10B30C0000BFBFF36F8F00BF4FF01023D3F8003294
:10B31C00002B05DB4FF01023D3F80432002B2BDA73
:10B32C001F4B0122C3F8042500BF1D4BD3F800347A
:10B33C00002BFAD04FF010231222C3F8002200BFCA
:10B34C00174BD3F80034002BFAD04FF010231222F5
:10B35C00C3F8042200BF124BD3F80034002BFAD0F0
:10B36C000F4B0022C3F8042500BF0D4BD3F800345B
:10B37C00002BFAD0FFF7CCFEFFF7E0FE00BF08BDB4
:10B38C0000C000408C5600404881030000F0004093
:10B39C00E40E0040580200104096024000ED00E020
:10B3AC0000E001400C4B1B68082B11D10B4B1B68A8
:10B3BC00002B01D101230CE0084B1B68012B01D1A0
:10B3CC00012306E0054B1B68022B01D1012300E091
:10B3DC0001231846704700BF3001001034010010E3
:10B3EC000C4B1B68082B11D10B4B1B68002B01D18C
:10B3FC0001230CE0084B1B68012B01D1012306E053
:10B40C00054B1B68022B01D1012300E001231846D8
:10B41C00704700BF3001001034010010064B1B6850
:10B42C00082B05D1054B1B68002B01D1012300E033
:10B43C0000231846704700BF300100103401001083
:10B44C00064B1B68082B05D1054B1B68002B01D143
:10B45C00012300E000231846704700BF30010010A4
:10B46C0034010010064B1B68082B05D1054B1B68DB
:10B47C00002B01D1012300E000231846704700BFC8
:10B48C003001001034010010064B1B68082B05D14D
:10B49C00054B1B68002B01D1012300E0002318464B
:10B4AC00704700BF30010010340100100C4B1B68BA
:10B4BC00082B11D10B4B1B68002B01D101230CE085
:10B4CC00084B1B68012B01D1012306E0054B1B68BF
:10B4DC00022B01D1012300E001231846704700BF65
:10B4EC00300100103401001000B583B00190019BB5
:10B4FC001B682F2B04D90B4940F2C710FDF7E7F856
:10B50C00019B1B681F2B02D84FF0A04306E0019B48
:10B51C001B6803F01F02019B1A60034B184603B013
:10B52C005DF804FB801803000003005000B585B0E3
:10B53C00019001AB1846FFF7D7FF0390019B012246
:10B54C0002FA03F31946039800F04CF800BF05B05B
:10B55C005DF804FB00B585B0019001AB1846FFF710
:10B56C00C3FF0390019B012202FA03F319460398CF
:10B57C0000F042F800BF05B05DF804FB00B585B0E3
:10B58C00019001AB1846FFF7AFFF0390039BD3F874
:10B59C0004350293029BDA43019B012101FA03F368
:10B5AC001A40039BC3F80825019B01229A40029B79
:10B5BC001A40039BC3F80C2500BF05B05DF804FBD3
:10B5CC0000B583B001900091009B002B03D1019832
:10B5DC00FFF7C0FF02E00198FFF7A8FF00BF03B020
:10B5EC005DF804FB82B001900091019B009AC3F8B6
:10B5FC00082500BF02B0704782B001900091019BFA
:10B60C00009AC3F80C2500BF02B0704700B583B098
:10B61C000190019B032B03D907494120FDF757F8F3
:10B62C00064A019B13441B7800211846FFF7C8FFFC
:10B63C0000BF03B05DF804FBB4180300F41803005A
:10B64C0000B583B00190019B032B03D90749472018
:10B65C00FDF73DF8064A019B13441B78012118465F
:10B66C00FFF7AEFF00BF03B05DF804FBB418030096
:10B67C00F418030000B583B00023019305E0019892
:10B68C00FFF7DEFF019B01330193019B032BF6D9DE
:10B69C0000BF00BF03B05DF804FB000000B583B031
:10B6AC000190019B032B03D907495F20FDF70FF88D
:10B6BC00064A019B13441B781846FFF75FFF00BF37
:10B6CC0003B05DF804FB00BFB4180300F4180300CA
:10B6DC0082B003468DF807309DF8073003F01F0247
:10B6EC0006499DF907305B09012000FA02F220336C
:10B6FC0041F8232000BF02B0704700BF00E100E01A
:10B70C0008B504F0DFF9034683F00103DBB2002B2C
:10B71C0003D105497920FCF7DAFF00F03FFB034B1E
:10B72C0000229A7000BF08BD00190300E439002004
:10B73C0000B583B000230193144B1B78002B02D06F
:10B74C00852301931CE0114B00229A600F4B0022C1
:10B75C005A600E4B00221A610C4B0022DA600C4826
:10B76C0000F0E2FA019004F0ADF9034683F0010316
:10B77C00DBB2002B01D000F0FDFA044B01221A7051
:10B78C00019B184603B05DF804FB00BFE4390020B0
:10B79C0075B8020084B00190019B1B680393039B56
:10B7AC00002B03D0039B1A68019B1A60039B18465D
:10B7BC0004B0704700B583B0164B1B78002B04D136
:10B7CC0015494FF48470FCF782FF124BDB68002B99
:10B7DC0004D1114940F20910FCF779FF00238DF8D0
:10B7EC0007300DF107031846FCF724FF094BDB6803
:10B7FC00013B084AD360074BDB68002B01D1FFF7F4
:10B80C007FFF9DF807301846FCF72AFF00BF03B0F6
:10B81C005DF804FBE43900200019030000B585B085
:10B82C0003468DF807309DF80730002B02D10C4BE6
:10B83C00039301E00B4B03930398FFF7ABFF0290CC
:10B84C00029B002B06D0029B5B689DF807201046DC
:10B85C009847F1E700BF00BF05B05DF804FB00BFDF
:10B86C00EC390020F439002000B583B003468DF884
:10B87C0007309DF80730002B05D10A4B01225A7076
:10B88C000020FFF7CBFF9DF80730012B05D1054BAE
:10B89C0001229A700120FFF7C1FF00BF03B05DF8D1
:10B8AC0004FB00BFE439002000B583B00190009187
:10B8BC00019B002B05D1054B01225A700020FFF78C
:10B8CC00ADFF00BF03B05DF804FB00BFE4390020FE
:10B8DC0000B585B0034600918DF807309DF8073010
:10B8EC00032B29D0032B35DC002B02D0012B04D0E9
:10B8FC0030E00020FFF7ECFE2DE000238DF80F3038
:10B90C000DF10F031846FCF795FE154B1B7883F0D1
:10B91C000103DBB2002B01D0FFF70AFF104BDB68F1
:10B92C0001330F4AD3600E4B01229A709DF80F30F1
:10B93C001846FCF795FE0EE0094B1B78002B04D142
:10B94C00084940F24320FCF7C2FE00F013FAFFF75F
:10B95C0031FF00E000BF00BF05B05DF804FB00BF85
:10B96C00E43900200019030000B589B00190009162
:10B97C00009B0793019B1B788DF80C30019B5B6837
:10B98C000493019B1B7A8DF81430019BDB680693A2
:10B99C00074A079B52F823300649079A51F82210A0
:10B9AC0003AA1046984700BF09B05DF804FB00BF1E
:10B9BC00F8390020003A002000B589B001900091C0
:10B9CC00009B0793019B1B788DF80C30019B5B68E7
:10B9DC000493019B9B68DBB28DF81430019BDB68F0
:10B9EC000693074A079B52F823300649079A51F8E9
:10B9FC00221003AA1046984700BF09B05DF804FB5B
:10BA0C00F8390020003A002030B58FB00390029135
:10BA1C000192039B1B780C9326490C9B019A41F8CD
:10BA2C002320029B1A6924490C9B41F82320029B7A
:10BA3C005B7F1946214A0C9B13440A461A70029BE1
:10BA4C0004AC1D460FCD0FC495E80F0084E80F0021
:10BA5C000C9B089300230D93039B1B781A46174BE2
:10BA6C009B5C002B0DD0039B181D019B002B01D060
:10BA7C00134A00E0002204AB194601F0E3FF0D90DD
:10BA8C0014E0039B1B781A460C4B9B5C002B0DD1CE
:10BA9C00039B03F10C00019B002B01D0094A00E031
:10BAAC00002204AB194601F069F90D900D9B184664
:10BABC000FB030BDF8390020003A0020083A0020C1
:10BACC0075B90200C5B9020082B003468DF8073083
